:020000040800F2
:100000007006002089010008A907000853040008B1
:10001000A506000843020008D10B000800000000FC
:10002000000000000000000000000000A50A000819
:10003000D902000800000000810A0008690B0008CE
:10004000A3010008A3010008A3010008A301000800
:10005000A3010008A3010008A3010008A3010008F0
:10006000A3010008A3010008A3010008A3010008E0
:10007000A3010008A3010008A3010008A3010008D0
:10008000A3010008A3010008A3010008A3010008C0
:10009000A3010008A3010008A3010008A3010008B0
:1000A000A3010008A3010008A3010008A3010008A0
:1000B000A3010008A3010008A3010008A301000890
:1000C000A3010008A3010008A3010008A301000880
:1000D000A3010008A3010008A3010008A301000870
:1000E000A3010008A3010008A301000800F002F822
:1000F00000F03AF80AA090E8000C82448344AAF188
:100100000107DA4501D100F02FF8AFF2090EBAE885
:100110000F0013F0010F18BFFB1A43F0010318473B
:100120000C1100002C110000103A24BF78C878C1CF
:10013000FAD8520724BF30C830C144BF04680C60ED
:10014000704700000023002400250026103A28BF35
:1001500078C1FBD8520728BF30C148BF0B60704739
:100160001FB51FBD10B510BD00F031F81146FFF7E7
:10017000F7FF00F057FD00F04FF803B4FFF7F2FF70
:1001800003BC00F057F800000948804709480047C1
:10019000FEE7FEE7FEE7FEE7FEE7FEE7FEE7FEE737
:1001A000FEE7FEE704480549054A064B7047000094
:1001B0006D0B0008ED0000087000002070060020A4
:1001C000700200207002002070477047704775462B
:1001D00000F02CF8AE4605006946534620F00700B3
:1001E000854618B020B5FFF7DDFFBDE820404FF091
:1001F00000064FF000074FF000084FF0000B21F011
:100200000701AC46ACE8C009ACE8C009ACE8C009DD
:10021000ACE8C0098D46704710B50446AFF30080C6
:100220002046BDE81040FFF7A8BF00000048704717
:100230000C00002001491820ABBEFEE7260002009A
:10024000704700BFFEE7000010B50AA2042101209C
:1002500000F0E2FB0AA20521022000F0DDFB0AA269
:100260000521032000F0D8FB09A20521042000F09D
:10027000D3FB10BD2D436F6E74726F6C2D000000A8
:100280004D6F746F72000000536572766F0000004E
:100290002E2E2E0010B500F088FA0BA202210420A9
:1002A00000F0BAFB09A20221084600F0B5FB06A245
:1002B0000221032000F0B0FB012005490870002056
:1002C0000449086010BD0000202000003E3E0000F0
:1002D0000000002004000020704700B5034603E042
:1002E0004FF47A7000F005F8181EA3F10103F7D15E
:1002F00000BD00EBC001C9004FF0E02251610021B8
:1003000091610521116100BF4FF0E021096901F4FD
:1003100080310029F8D004214FF0E02211617047AC
:100320002DE9F0410246002500260020002300248C
:10033000002791F803C00CF00F0591F803C00CF0F2
:10034000100CBCF1000F03D091F802C04CEA050577
:1003500091F800C0BCF1000F31D0146800202BE0F0
:100360004FF0010C0CFA00F3B1F800C00CEA0306E0
:100370009E4220D183004FF00F0C0CFA03F7BC43D0
:1003800005FA03FC4CEA040491F803C0BCF1280F01
:1003900006D14FF0010C0CFA00FCC2F814C00AE0C0
:1003A00091F803C0BCF1480F05D14FF0010C0CFAD5
:1003B00000FCC2F810C0401C0828D1D31460B1F86A
:1003C00000C0BCF1FF0F34DD546800202EE000F1C6
:1003D000080C4FF0010808FA0CF3B1F800C00CEA61
:1003E00003069E4221D183004FF00F0C0CFA03F755
:1003F000BC4305FA03FC4CEA040491F803C0BCF1C9
:10040000280F05D100F1080C08FA0CF8C2F8148086
:1004100091F803C0BCF1480F07D100F1080C4FF070
:10042000010808FA0CF8C2F81080401C0828CED346
:100430005460BDE8F0810246002093680B400BB188
:10044000012000E0002070470AB1016100E0416135
:10045000704700BFFEE7000010B500244FF40061B4
:100460001E48FFF7E8FF70B91420FFF736FF00BF02
:100470004FF400611948FFF7DEFF0028F8D0142080
:10048000FFF72BFF022402211448FFF7D4FF68B9BD
:100490001420FFF722FF00BF02211048FFF7CBFF17
:1004A0000028F9D01420FFF718FF01244FF48061D1
:1004B0000A48FFF7C0FF70B91420FFF70EFF00BF16
:1004C0004FF480610548FFF7B6FF0028F8D01420EC
:1004D000FFF703FF0324204610BD0000000C01407D
:1004E00008B50121082000F0CDFA03208DF80200A4
:1004F0004FF6FF70ADF8000048208DF80300694604
:100500000148FFF70DFF08BD000C014010B5FFF7D3
:10051000A3FF324908700846007801280DD1022057
:100520002F4908602F480078401CC0B22D49087040
:10053000042811D1012008700EE028480078022814
:1005400003D101202649086006E0244800780328EA
:1005500002D1001F224908602148006802283CD1CE
:1005600000201F4908601F480078012804D0022895
:1005700012D0032830D11FE01BA20221042000F07A
:100580004BFA1AA20221084600F046FA16A20221EE
:10059000032000F041FA1FE013A20221084600F0F8
:1005A0003BFA12A20221032000F036FA0EA2022129
:1005B000042000F031FA0FE00BA20221032000F02A
:1005C0002BFA0AA20221042000F026FA06A2022138
:1005D000084600F021FA00BF00BF10BD080000204F
:1005E0000400002000000020202000003E3E00000B
:1005F00010B50AA20621012000F00EFA09A2052179
:10060000022000F009FA0BA20521032000F004FAF1
:100610000BA20521042000F0FFF910BD2D4C45442C
:100620002D000000466C6F77696E67204D6F646522
:1006300000000000427265617468204D6F646500BF
:100640002E2E2E0010B50AA20621012000F0E4F99A
:1006500009A20521022000F0DFF90AA205210320EA
:1006600000F0DAF90BA20521042000F0D5F910BD45
:100670002D4D41494E2D00004C4544204D656E7571
:1006800000000000436F6E74726F6C204D656E75D4
:1006900000000000566F6C74616765204D656E75D3
:1006A0000000000000BFFEE710B50CA202210420EC
:1006B00000F0B2F90AA20221084600F0ADF907A243
:1006C0000221032000F0A8F901200649087000204B
:1006D00005490860FFF7B6FF10BD000020200000AC
:1006E0003E3E0000000000200400002010B52B4812
:1006F000007830B101282BD0022835D003284BD107
:100700003EE027480068012821D1264800780128CA
:1007100004D002280AD0032818D10FE0FFF7BAFD51
:10072000FFF766FF01201D4908700FE0FFF7B2FDDB
:10073000FFF78AFD02201949087007E0FFF7AAFDBC
:1007400000F048FA03201549087000BF00BF23E0FD
:1007500013480068401C30B9FFF79CFDFFF772FF9B
:1007600000200E49087017E00D480068401C30B9A1
:10077000FFF790FDFFF766FF0020084908700BE0C7
:1007800007480068401C30B9FFF784FDFFF75AFFA7
:1007900000200249087000BF00BF10BD010000200A
:1007A0000400002000000020704770B500240EE017
:1007B0000021204600F0E5F8002504E0002000F0CC
:1007C0004FF9681CC5B2802DF8DB601CC4B2082C40
:1007D000EEDB70BD08B50121082000F053F91420AC
:1007E0008DF8030003208DF802004FF48070ADF8FF
:1007F000000069460A48FFF793FD4FF40070ADF81A
:10080000000069460648FFF78BFD012211020448EB
:10081000FFF71AFE012251020148FFF715FE08BD3D
:10082000000C014070B50546002415E080202041F1
:1008300000EA05024FF400710E48FFF705FE0122A1
:1008400011020C48FFF700FE00224FF480710948A6
:10085000FFF7FAFD601CC4B2082CE7DB012211028D
:100860000448FFF7F1FD00224FF480710148FFF7C3
:10087000EBFD70BD000C014010B5012251020A4889
:10088000FFF7E2FD012211020748FFF7DDFD00221C
:100890004FF400710448FFF7D7FD00224FF4807138
:1008A0000148FFF7D1FD10BD000C014010B500223A
:1008B0004FF400710648FFF7C7FD012211020448FA
:1008C000FFF7C2FD012251020148FFF7BDFD10BD37
:1008D000000C014070B5002406E0002500E06D1C0E
:1008E000B5F57A7FFBD3641CB4F57A7FF5D3FFF7B7
:1008F00071FFAE2000F0A4F8D52000F0A1F8802010
:1009000000F09EF8A82000F09BF83F2000F098F837
:10091000D32000F095F8002000F092F8402000F07D
:100920008FF8A12000F08CF8C82000F089F8DA20B8
:1009300000F086F8122000F083F8812000F080F8A3
:10094000CF2000F07DF8D92000F07AF8F12000F0F7
:1009500077F8DB2000F074F8302000F071F8A42064
:1009600000F06EF8A62000F06BF88D2000F068F81B
:10097000142000F065F8AF2000F062F8FFF715FFD3
:1009800070BD70B505460C4645F0B00000F058F853
:10099000102141EA141000F053F804F00F0000F0A9
:1009A0004FF870BD2DE9F04105460E461746721E00
:1009B000D206110E6A1E5206100EFFF7E2FF002447
:1009C00009E0A7F12001134A02EB0111085D00F0D4
:1009D00047F8601CC4B2082CF3DB721ED206110E5D
:1009E0006A1E012303EB4202D0B2FFF7CAFF0024C4
:1009F0000BE0A7F12001074A02EB011204F1080104
:100A0000505C00F02DF8601CC4B2082CF1DBBDE88E
:100A1000F08100003C0C00082DE9F04107460E462D
:100A20001546002407E02A5D3019C1B23846FFF7A9
:100A3000B9FF601CC4B2285D0028F4D1BDE8F08184
:100A400010B50446FFF718FF7820FFF7EBFE0020F3
:100A5000FFF7E8FE2046FFF7E5FEFFF727FF10BD92
:100A600010B50446FFF708FF7820FFF7DBFE4020B3
:100A7000FFF7D8FE2046FFF7D5FEFFF717FF10BDA2
:100A80007047000029B1064A92690243044B9A61FB
:100A900004E0034A92698243014B9A617047000067
:100AA00000100240704710B500F002F810BD0000C1
:100AB0000CB50020019000902A48006840F4803076
:100AC0002849086000BF2748006800F40030009003
:100AD0000198401C0190009818B90198B0F5A06FDA
:100AE000F1D12048006800F4003010B101200090DE
:100AF00001E0002000900098012831D11948406899
:100B000018494860084640684860084640684860A0
:100B10000846406820F47C1048600846406840F46D
:100B2000981048600846006840F08070086000BF78
:100B30000C48006800F000700028F9D009484068AF
:100B400020F00300074948600846406840F0020072
:100B5000486000BF0348406800F00C000828F9D145
:100B60000CBD0000001002407047000010B5144892
:100B7000006840F0010012490860084640681149C9
:100B800008400F494860084600680F4908400C4972
:100B900008600846006820F4802008600846406825
:100BA00020F4FE0048604FF41F0088600020C862F7
:100BB000FFF779FF4FF000600449086010BD0000A6
:100BC000001002400000FFF8FFFFF6FE08ED00E015
:100BD00000BFFEE710B50AA204210120FFF71CFFA9
:100BE0000AA205210220FFF717FF0AA20521032010
:100BF000FFF712FF0AA205210420FFF70DFF10BD29
:100C00002D566F6C746167652D0000004144204DC6
:100C10004F444500444143204D4F444500000000EF
:100C20002E2E2E00FFF75CFCFFF754FEFFF73CFD75
:100C300003E0FFF75BFDFFF769FCFAE70000000047
:100C4000000000000000000000000000000000F8AC
:100C500000000000000000333000000000100C060F
:100C6000100C0600000000000000000040C07840AA
:100C7000C0784000043F04043F040400007088FC76
:100C800008300000001820FF211E0000F008F000CE
:100C9000E018000000211C031E211E0000F008883F
:100CA000700000001E2123241927211010160E00A9
:100CB000000000000000000000000000000000E054
:100CC0001804020000000007182040000002041869
:100CD000E00000000040201807000000404080F0C5
:100CE000804040000202010F01020200000000F0FB
:100CF000000000000101011F0101010000000000CF
:100D00000000000080B07000000000000000000043
:100D100000000000000101010101010100000000CC
:100D20000000000000303000000000000000000063
:100D300080601804006018060100000000E0100840
:100D40000810E000000F102020100F00001010F815
:100D5000000000000020203F202000000070080854
:100D600008887000003028242221300000300888D4
:100D7000884830000018202020110E000000C020FC
:100D800010F8000000070424243F240000F808881D
:100D9000880808000019212020110E0000E01088AA
:100DA00088180000000F112020110E0000380808DC
:100DB000C83808000000003F0000000000708808EC
:100DC00008887000001C222121221C0000E010086D
:100DD0000810E0000000312222110F00000000C0C6
:100DE000C000000000000030300000000000008063
:100DF0000000000000008060000000000000804053
:100E0000201008000001020408102000404040406B
:100E100040404000040404040404040000081020BE
:100E20004080000000201008040201000070480803
:100E30000808F0000000003036010000C030C8286B
:100E4000E810E0000718272423140B000000C03826
:100E5000E0000000203C23020227382008F88888A0
:100E600088700000203F202020110E00C0300808AC
:100E700008083800071820202010080008F8080883
:100E80000810E000203F202020100F0008F888887C
:100E9000E8081000203F20202320180008F8888848
:100EA000E8081000203F200003000000C0300808C0
:100EB0000838000007182020221E020008F8080049
:100EC0000008F808203F210101213F20000808F810
:100ED000080800000020203F202000000000080833
:100EE000F8080800C08080807F00000008F888C0F3
:100EF00028180800203F20012638200008F80800A4
:100F000000000000203F20202020300008F8F800DA
:100F1000F8F80800203F003F003F200008F830C0EC
:100F20000008F808203F200007183F00E0100808DC
:100F30000810E0000F10202020100F0008F808080B
:100F40000808F000203F210101010000E01008081E
:100F50000810E0000F18242438504F0008F8888843
:100F600088887000203F2000030C30200070880823
:100F7000080838000038202121221C00180808F831
:100F8000080818000000203F2000000008F80800B2
:100F90000008F808001F202020201F000878880083
:100FA00000C83808000007380E010000F80800F8F3
:100FB0000008F800033C0700073C0300081868809D
:100FC0008068180820302C03032C30200838C80013
:100FD000C83808000000203F200000001008080862
:100FE000C83808002038262120201800000000FE04
:100FF000020202000000007F40404000000C30C0B0
:1010000000000000000000010638C00000020202DB
:10101000FE000000004040407F000000000004028D
:1010200002020400000000000000000000000000B8
:1010300000000000808080808080808000020204A8
:1010400000000000000000000000000000008080A0
:10105000808000000019242222223F2008F800800E
:1010600080000000003F112020110E0000000080D1
:1010700080800000000E1120202011000000008060
:101080008088F800000E112020103F200000808092
:1010900080800000001F222222221300008080F0A6
:1010A000888888180020203F2020000000008080D1
:1010B00080808000006B94949493600008F8008016
:1010C00080800000203F210000203F200080989871
:1010D000000000000020203F2020000000000080D1
:1010E0009898000000C08080807F000008F8000011
:1010F00080808000203F24022D302000000808F866
:10110000000000000020203F202000008080808020
:1011100080808000203F20003F20003F80800080B2
:1011200080800000203F210000203F2000008080C0
:1011300080800000001F202020201F008080008071
:101140008000000080FFA12020110E000000008020
:1011500080808000000E112020A0FF808080800011
:101160008080800020203F2120000100000080803E
:10117000808080000033242424241900008080E033
:10118000808000000000001F202000008080000000
:1011900000808000001F202020103F2080808000E1
:1011A0000080808000010E300806010080800080F1
:1011B000008080800F300C030C300F000080800016
:1011C000808080000020312E0E3120008080800041
:1011D0000080808080818E701806010000808080F1
:1011E000808080000021302C22213000000000008F
:1011F000807C020200000000003F40400000000030
:10120000FF00000000000000FF0000000002027C60
:10121000800000000040403F000000000006010187
:101220000202040400000000000000004C1200084C
:10123000000000200C0000002801000858120008DF
:101240000C000020640600004401000801000000BA
:08125000000000000000000096
:040000050800018965
:00000001FF
