:020000040800F2
:100000006806002089010008E1040008D103000807
:10001000DD0400084302000831060008000000006B
:1000200000000000000000000000000005050008BE
:100030004702000800000000E3040008C9050008AA
:10004000A3010008A3010008A3010008A301000800
:10005000A3010008A3010008A3010008A3010008F0
:10006000A3010008A3010008A3010008A3010008E0
:10007000A3010008A3010008A3010008A3010008D0
:10008000A3010008A3010008A3010008A3010008C0
:10009000A3010008A3010008A3010008A3010008B0
:1000A000A3010008A3010008A3010008A3010008A0
:1000B000A3010008A3010008A3010008A301000890
:1000C000A3010008A3010008A3010008A301000880
:1000D000A3010008A3010008A3010008A301000870
:1000E000A3010008A3010008A301000800F002F822
:1000F00000F03AF80AA090E8000C82448344AAF188
:100100000107DA4501D100F02FF8AFF2090EBAE885
:100110000F0013F0010F18BFFB1A43F0010318473B
:100120004405000064050000103A24BF78C878C177
:10013000FAD8520724BF30C830C144BF04680C60ED
:10014000704700000023002400250026103A28BF35
:1001500078C1FBD8520728BF30C148BF0B60704739
:100160001FB51FBD10B510BD00F031F81146FFF7E7
:10017000F7FF00F05FFA00F04FF803B4FFF7F2FF6B
:1001800003BC00F057F800000948804709480047C1
:10019000FEE7FEE7FEE7FEE7FEE7FEE7FEE7FEE737
:1001A000FEE7FEE704480549054A064B7047000094
:1001B000CD050008ED00000868000020680600205A
:1001C000680200206802002070477047704775463B
:1001D00000F02CF8AE4605006946534620F00700B3
:1001E000854618B020B5FFF7DDFFBDE820404FF091
:1001F00000064FF000074FF000084FF0000B21F011
:100200000701AC46ACE8C009ACE8C009ACE8C009DD
:10021000ACE8C0098D46704710B50446AFF30080C6
:100220002046BDE81040FFF7A8BF00000048704717
:100230000400002001491820ABBEFEE726000200A2
:10024000704700BFFEE7704700B5034603E04FF478
:100250007A7000F005F8181EA3F10103F7D100BD74
:1002600000EBC001C9004FF0E02251610021916113
:100270000521116100BF4FF0E021096901F48031CF
:100280000029F8D004214FF0E022116170472DE9D8
:10029000F04102460025002600200023002400270C
:1002A00091F803C00CF00F0591F803C00CF0100C8E
:1002B000BCF1000F03D091F802C04CEA050591F89B
:1002C00000C0BCF1000F31D0146800202BE04FF0CB
:1002D000010C0CFA00F3B1F800C00CEA03069E42D0
:1002E00020D183004FF00F0C0CFA03F7BC4305FA42
:1002F00003FC4CEA040491F803C0BCF1280F06D1BA
:100300004FF0010C0CFA00FCC2F814C00AE091F89E
:1003100003C0BCF1480F05D14FF0010C0CFA00FCF2
:10032000C2F810C0401C0828D1D31460B1F800C036
:10033000BCF1FF0F34DD546800202EE000F1080C02
:100340004FF0010808FA0CF3B1F800C00CEA0306FC
:100350009E4221D183004FF00F0C0CFA03F7BC43EF
:1003600005FA03FC4CEA040491F803C0BCF1280F21
:1003700005D100F1080C08FA0CF8C2F8148091F8C5
:1003800003C0BCF1480F07D100F1080C4FF0010881
:1003900008FA0CF8C2F81080401C0828CED354602C
:1003A000BDE8F0810246002093680B400BB10120AC
:1003B00000E00020704702460020D3680B400BB1DC
:1003C000012000E0002070474161704701617047E3
:1003D00000BFFEE710B500244FF400611348FFF79B
:1003E000E1FF70B91420FFF72FFF00BF4FF4006149
:1003F0000E48FFF7D7FF0028F8D01420FFF724FF9E
:10040000022402210948FFF7CDFF68B91420FFF745
:100410001BFF00BF02210548FFF7C4FF0028F9D0E9
:100420001420FFF711FF0124204610BD000C0140ED
:1004300008B50121082000F055F803208DF80200CE
:1004400040F60200ADF8000048208DF80300694630
:100450000148FFF71CFF08BD000C014010B5022148
:100460000648FFF7A8FF20B902210448FFF7AEFFB6
:1004700003E002210148FFF7A7FF10BD000801407B
:1004800010B504210648FFF796FF20B9042104485F
:10049000FFF79CFF03E004210148FFF795FF10BD23
:1004A0000008014008B50121042000F01BF80320DA
:1004B0008DF802004FF6FF70ADF8000010208DF8A7
:1004C000030069460448FFF7E2FE4FF6FF71024859
:1004D000FFF77CFF08BD00000008014000BFFEE7F9
:1004E0007047704729B1064A92690243044B9A61EA
:1004F00004E0034A92698243014B9A61704700000D
:1005000000100240704710B500F002F810BD000066
:100510000CB50020019000902A48006840F480301B
:100520002849086000BF2748006800F400300090A8
:100530000198401C0190009818B90198B0F5A06F7F
:10054000F1D12048006800F4003010B10120009083
:1005500001E0002000900098012831D1194840683E
:100560001849486008464068486008464068486046
:100570000846406820F47C1048600846406840F413
:10058000981048600846006840F08070086000BF1E
:100590000C48006800F000700028F9D00948406855
:1005A00020F00300074948600846406840F0020018
:1005B000486000BF0348406800F00C000828F9D1EB
:1005C0000CBD0000001002407047000010B5144838
:1005D000006840F00100124908600846406811496F
:1005E00008400F494860084600680F4908400C4918
:1005F00008600846006820F48020086008464068CB
:1006000020F4FE0048604FF41F0088600020C8629C
:10061000FFF779FF4FF000600449086010BD00004B
:10062000001002400000FFF8FFFFF6FE08ED00E0BA
:1006300000BFFEE7FFF736FFFFF7FAFE0FE0FFF718
:10064000C9FE0749087008460078012801D1FFF764
:1006500005FF03480078022801D1FFF711FFEEE7FC
:1006600000000020840600080000002004000000B4
:100670002801000888060008040000206406000025
:08068000440100080000000025
:040000050800018965
:00000001FF
