:020000040800F2
:100000006806002089010008470400083F04000832
:100010004304000843020008210A00080000000011
:100020000000000000000000000000007D07000844
:1000300047020008000000003907000841080008D6
:10004000A3010008A3010008A3010008A301000800
:10005000A3010008A3010008A3010008A3010008F0
:10006000A3010008A3010008A3010008A3010008E0
:10007000A3010008A3010008A3010008A3010008D0
:10008000A3010008A3010008A3010008A3010008C0
:10009000A3010008A3010008A3010008A3010008B0
:1000A000A3010008A3010008A3010008A3010008A0
:1000B000A3010008A3010008A3010008A301000890
:1000C000A3010008A3010008A3010008A301000880
:1000D000A3010008A3010008A3010008A301000870
:1000E000A3010008A3010008A301000800F002F822
:1000F00000F03AF80AA090E8000C82448344AAF188
:100100000107DA4501D100F02FF8AFF2090EBAE885
:100110000F0013F0010F18BFFB1A43F0010318473B
:100120006C0900008C090000103A24BF78C878C11F
:10013000FAD8520724BF30C830C144BF04680C60ED
:10014000704700000023002400250026103A28BF35
:1001500078C1FBD8520728BF30C148BF0B60704739
:100160001FB51FBD10B510BD00F031F81146FFF7E7
:10017000F7FF00F057FC00F04FF803B4FFF7F2FF71
:1001800003BC00F057F800000948804709480047C1
:10019000FEE7FEE7FEE7FEE7FEE7FEE7FEE7FEE737
:1001A000FEE7FEE704480549054A064B7047000094
:1001B00045080008ED0000086800002068060020DF
:1001C000680200206802002070477047704775463B
:1001D00000F02CF8AE4605006946534620F00700B3
:1001E000854618B020B5FFF7DDFFBDE820404FF091
:1001F00000064FF000074FF000084FF0000B21F011
:100200000701AC46ACE8C009ACE8C009ACE8C009DD
:10021000ACE8C0098D46704710B50446AFF30080C6
:100220002046BDE81040FFF7A8BF00000048704717
:100230000400002001491820ABBEFEE726000200A2
:10024000704700BFFEE7704700B5034603E04FF478
:100250007A7000F005F8181EA3F10103F7D100BD74
:1002600000EBC001C9004FF0E02251610021916113
:100270000521116100BF4FF0E021096901F48031CF
:100280000029F8D004214FF0E022116170472DE9D8
:10029000F04102460025002600200023002400270C
:1002A00091F803C00CF00F0591F803C00CF0100C8E
:1002B000BCF1000F03D091F802C04CEA050591F89B
:1002C00000C0BCF1000F31D0146800202BE04FF0CB
:1002D000010C0CFA00F3B1F800C00CEA03069E42D0
:1002E00020D183004FF00F0C0CFA03F7BC4305FA42
:1002F00003FC4CEA040491F803C0BCF1280F06D1BA
:100300004FF0010C0CFA00FCC2F814C00AE091F89E
:1003100003C0BCF1480F05D14FF0010C0CFA00FCF2
:10032000C2F810C0401C0828D1D31460B1F800C036
:10033000BCF1FF0F34DD546800202EE000F1080C02
:100340004FF0010808FA0CF3B1F800C00CEA0306FC
:100350009E4221D183004FF00F0C0CFA03F7BC43EF
:1003600005FA03FC4CEA040491F803C0BCF1280F21
:1003700005D100F1080C08FA0CF8C2F8148091F8C5
:1003800003C0BCF1480F07D100F1080C4FF0010881
:1003900008FA0CF8C2F81080401C0828CED354602C
:1003A000BDE8F081F0B50A460023002400210025B5
:1003B00000F00046B6F1004F02D11D4EF16901E098
:1003C0001B4E7168C0F3034583B200F44016B6F5C6
:1003D000401F08D121F07061154E766826F07066D6
:1003E000134F7E6012E000F48016B6F5801F06D130
:1003F000032606FA05F4A14341F0706106E0460DBC
:10040000360103FA06F6B14341F0706122B1460DA0
:10041000360103FA06F6314300F00046B6F1004F0C
:1004200002D1034EF16101E0014E7160F0BD0000A8
:10043000000001400AB1016100E04161704700BF66
:10044000FEE700BFFEE7704770B500240EE0002114
:10045000204600F0E6F8002504E0002000F002F954
:10046000681CC5B2802DF8DB601CC4B2082CEEDB22
:1004700070BD000008B50121082000F06FF91420BC
:100480008DF8030003208DF802004FF48070ADF862
:10049000000069460A48FFF7FAFE4FF40070ADF815
:1004A000000069460648FFF7F2FE012211020448E7
:1004B000FFF7C0FF012251020148FFF7BBFF08BD53
:1004C000000C014070B50546002415E08020204155
:1004D00000EA05024FF400710E48FFF7ABFF01225E
:1004E00011020C48FFF7A6FF00224FF48071094863
:1004F000FFF7A0FF601CC4B2082CE7DB0122110249
:100500000448FFF797FF00224FF480710148FFF77E
:1005100091FF70BD000C014010B5012251020A4844
:10052000FFF788FF012211020748FFF783FF00222F
:100530004FF400710448FFF77DFF00224FF48071F3
:100540000148FFF777FF10BD000C014010B50022F5
:100550004FF400710648FFF76DFF012211020448B5
:10056000FFF768FF012251020148FFF763FF10BD4A
:10057000000C014070B5002406E0002500E06D1C71
:10058000B5F57A7FFBD3641CB4F57A7FF5D3FFF71A
:1005900071FFAE2000F056F8D52000F053F880200F
:1005A00000F050F8A82000F04DF83F2000F04AF885
:1005B000D32000F047F8002000F044F8402000F07D
:1005C00041F8A12000F03EF8C82000F03BF8DA2006
:1005D00000F038F8122000F035F8812000F032F8F1
:1005E000CF2000F02FF8D92000F02CF8F12000F0F7
:1005F00029F8DB2000F026F8302000F023F8A420B2
:1006000000F020F8A62000F01DF88D2000F01AF868
:10061000142000F017F8AF2000F014F8FFF714FFD3
:1006200070BD70B505460C4645F0B00000F00AF804
:10063000102141EA141000F005F804F00F0000F05A
:1006400001F870BD10B50446FFF766FF7820FFF78C
:1006500039FF0020FFF736FF2046FFF733FFFFF793
:1006600075FF10BD10B50446FFF756FF7820FFF761
:1006700029FF4020FFF726FF2046FFF723FFFFF763
:1006800065FF10BD00B589B00121084600F056F89D
:100690000121042000F062F801212148FFF782FEC9
:1006A00003208DF822000120ADF8200018208DF8DD
:1006B000230008A91B48FFF7EAFD4FF0804000F037
:1006C000FFF80020ADF81A00ADF8160040F2CF2078
:1006D000ADF814006320ADF8180000208DF81C0060
:1006E00005A94FF0804000F049F901A800F03AF95F
:1006F0006020ADF804000020ADF80C000120ADF83A
:1007000006000020ADF80A0001A94FF0804000F07B
:10071000DDF80121880700F0C7F809B000BD00002E
:10072000000230000008014010B5044621464FF099
:10073000804000F021F910BD7047000029B1064A41
:10074000D2690243044BDA6104E0034AD26982436E
:10075000014BDA61704700000010024029B1064ADF
:1007600092690243044B9A6104E0034A926982430E
:10077000014B9A617047000000100240704710B5AD
:1007800000F002F810BD00000CB5002001900090B0
:100790002A48006840F480302849086000BF274894
:1007A000006800F4003000900198401C019000980F
:1007B00018B90198B0F5A06FF1D12048006800F495
:1007C000003010B10120009001E00020009000985E
:1007D000012831D1194840681849486008464068E6
:1007E00048600846406848600846406820F47C102D
:1007F00048600846406840F4981048600846006821
:1008000040F08070086000BF0C48006800F0007085
:100810000028F9D00948406820F0030007494860E3
:100820000846406840F00200486000BF0348406846
:1008300000F00C000828F9D10CBD000000100240A7
:100840007047000010B51448006840F001001249DC
:10085000086008464068114908400F49486008464A
:1008600000680F4908400C4908600846006820F4F9
:10087000802008600846406820F4FE0048604FF47D
:100880001F0088600020C862FFF779FF4FF000600A
:100890000449086010BD0000001002400000FFF88D
:1008A000FFFFF6FE08ED00E021B1028842F00102F0
:1008B000028004E002884FF6FE731A4002807047FF
:1008C00001894FF6F87211400181704770B500241C
:1008D00000220023058C4FF6FE7635400584028CFD
:1008E0008388048B4FF68F752C40B51E2C400D88E5
:1008F0002C43751E2A400D892A434D882A43144DE6
:10090000A8420BD0134DA84208D0134DA84205D0E1
:10091000124DA84202D0124DA84213D14FF6F775DE
:100920002A404D892A434FF6FB752A408D882A4379
:100930004FF6FF652B404FF6FF552B408D892B431B
:10094000CD892B4383800483CD888586028470BD46
:10095000002C0140003401400040014000440140AF
:10096000004801400021018041808180C1800181D7
:1009700041818181C1817047818670470022028850
:100980001D4B98420ED01D4B98420BD0B0F1804FBA
:1009900008D01B4B984205D01A4B984202D01A4BF4
:1009A000984204D14FF68F731A404B881A43174B65
:1009B000984207D0164B984204D04FF6FF431A4096
:1009C000CB881A4302808B8883850B8803850A4B6A
:1009D00098420BD0094B984208D00E4B984205D054
:1009E0000D4B984202D00D4B984201D10B7A0386F1
:1009F0000123838270470000002C01400034014035
:100A00000004004000080040000C004000100040BE
:100A100000140040004001400044014000480140F3
:100A200000BFFEE7FFF7A6FDFFF72CFE2AE000203F
:100A3000154908700BE014480078FFF775FE022096
:100A4000FFF702FC10480078401C0F4908700E4860
:100A500000786428EFDD00200B4908700EE00A4999
:100A60000978C1F1640188B2FFF75EFE0220FFF74A
:100A7000EBFB05480078401C0349087002480078E9
:100A80006428ECDDD3E7000000000020AC0A000879
:100A9000000000200400000028010008B00A00083F
:100AA000040000206406000044010008000000006B
:040000050800018965
:00000001FF
