:020000040800F2
:100000006806002089010008E7050008DF050008F0
:10001000E3050008430200080D0B00080000000083
:10002000000000000000000000000000E1090008DE
:100030004702000800000000BF090008A50A0008E8
:10004000A3010008A3010008A3010008A301000800
:10005000A3010008A301000849020008B902000832
:10006000A3010008A3010008A3010008A3010008E0
:10007000A3010008A3010008A3010008A3010008D0
:10008000A3010008A3010008A3010008A3010008C0
:10009000A3010008A3010008A3010008A3010008B0
:1000A000A3010008A3010008A3010008A3010008A0
:1000B000A3010008A3010008A3010008A301000890
:1000C000A3010008A3010008A3010008A301000880
:1000D000A3010008A3010008A3010008A301000870
:1000E00085020008A3010008A301000800F002F83F
:1000F00000F03AF80AA090E8000C82448344AAF188
:100100000107DA4501D100F02FF8AFF2090EBAE885
:100110000F0013F0010F18BFFB1A43F0010318473B
:100120002810000048100000103A24BF78C878C199
:10013000FAD8520724BF30C830C144BF04680C60ED
:10014000704700000023002400250026103A28BF35
:1001500078C1FBD8520728BF30C148BF0B60704739
:100160001FB51FBD10B510BD00F031F81146FFF7E7
:10017000F7FF00F0CDFC00F04FF803B4FFF7F2FFFB
:1001800003BC00F057F800000948804709480047C1
:10019000FEE7FEE7FEE7FEE7FEE7FEE7FEE7FEE737
:1001A000FEE7FEE704480549054A064B7047000094
:1001B000A90A0008ED000008680000206806002079
:1001C000680200206802002070477047704775463B
:1001D00000F02CF8AE4605006946534620F00700B3
:1001E000854618B020B5FFF7DDFFBDE820404FF091
:1001F00000064FF000074FF000084FF0000B21F011
:100200000701AC46ACE8C009ACE8C009ACE8C009DD
:10021000ACE8C0098D46704710B50446AFF30080C6
:100220002046BDE81040FFF7A8BF00000048704717
:100230000800002001491820ABBEFEE7260002009E
:10024000704700BFFEE7704710B5012000F058F876
:10025000012812D10121094800F0B3F950B9022157
:10026000064800F0AEF928B905480088401E00B2E3
:1002700003490880012000F03DF810BD000C01404A
:100280000200002010B54FF4804000F039F801283A
:100290000DD18103064800F094F920B90548008883
:1002A000401C044908804FF4804000F023F810BD42
:1002B000000C01400000002010B5022000F020F8E2
:1002C000012812D10221094800F07BF950B901211F
:1002D000064800F076F928B905480088401C00B2AD
:1002E00003490880022000F005F810BD000C014011
:1002F000020000200149086070470000140401401A
:10030000014600200022074B1B6803EA0102054B4F
:1003100014331B680B4013B10AB1012000E0002028
:100320007047000000040140002123498279002A1F
:100330003AD00A46126803689A430B461A600A1DAF
:10034000126803689A430B1D1A60027911440A6807
:1003500003681A430A60184A0832126803689A430D
:10036000154B08331A601A1D126803689A43124B22
:100370000C331A604279102A0ED11A1F12680368D2
:100380001A430D4B08331A601A1D126803681A438A
:10039000094B0C331A600DE00749427911440A6891
:1003A00003681A430A6005E0027911440A68036889
:1003B0009A430A6070470000000401400349B1F904
:1003C00000000021014A1180704700000200002057
:1003D0001FB50121082000F0F3FA0121084600F0C2
:1003E000EFFA48208DF80F000320ADF80C008DF8CF
:1003F0000E0003A91C4800F059F80021012000F06C
:1004000035F80121084600F031F803200190012061
:100410008DF80A0000208DF808000C208DF80900E6
:1004200001A8FFF781FF4FF4A06000F015F9062046
:100430008DF8000001208DF803008DF801008DF883
:100440000200684600F0D0F807208DF80000012077
:100450008DF803008DF8010002208DF80200684637
:1004600000F0C2F81FBD0000000C014030B50022B2
:100470008B071C0F0F2303FA04F20B4B8C1053F85D
:1004800024309343084C8D1044F8253023468C10BB
:1004900053F824308C07240F00FA04F42343024C51
:1004A0008D1044F8253030BD080001402DE9F041A1
:1004B000024600250026002000230024002791F892
:1004C00003C00CF00F0591F803C00CF0100CBCF148
:1004D000000F03D091F802C04CEA050591F800C066
:1004E000BCF1000F31D0146800202BE04FF0010C5C
:1004F0000CFA00F3B1F800C00CEA03069E4220D1CA
:1005000083004FF00F0C0CFA03F7BC4305FA03FC11
:100510004CEA040491F803C0BCF1280F06D14FF057
:10052000010C0CFA00FCC2F814C00AE091F803C0F8
:10053000BCF1480F05D14FF0010C0CFA00FCC2F8D9
:1005400010C0401C0828D1D31460B1F800C0BCF121
:10055000FF0F34DD546800202EE000F1080C4FF04E
:10056000010808FA0CF3B1F800C00CEA03069E4239
:1005700021D183004FF00F0C0CFA03F7BC4305FAAE
:1005800003FC4CEA040491F803C0BCF1280F05D128
:1005900000F1080C08FA0CF8C2F8148091F803C0B6
:1005A000BCF1480F07D100F1080C4FF0010808FA20
:1005B0000CF8C2F81080401C0828CED35460BDE867
:1005C000F0810246002093680B400BB1012000E04F
:1005D000002070470AB1016100E04161704700BF2F
:1005E000FEE700BFFEE7704770B5002100230F2231
:1005F000C47804B3154C246804F4E064C4F5E064E2
:10060000210AC1F10403CA40447804FA03F1847852
:100610001440214309010E4C0678A155047804F0DA
:100620001F050124AC4005786D11AD0005F1E025F2
:10063000C5F8004109E0047804F01F050124AC402E
:10064000044D0678761145F8264070BD0CED00E0AB
:1006500000E400E080E100E002490143024A116049
:10066000704700000000FA050CED00E070B50024B2
:100670000EE00021204600F0F0F8002504E0002004
:1006800000F08DF9681CC5B2802DF8DB601CC4B287
:10069000082CEEDB70BD000008B50121082000F039
:1006A0008FF914208DF8030003208DF802004FF419
:1006B0008070ADF8000069460A48FFF7F7FE4FF476
:1006C0000070ADF8000069460648FFF7EFFE012212
:1006D00011020448FFF77EFF012251020148FFF793
:1006E00079FF08BD000C014070B50546002415E0F7
:1006F0008020204100EA05024FF400710E48FFF708
:1007000069FF012211020C48FFF764FF00224FF439
:1007100080710948FFF75EFF601CC4B2082CE7DB5C
:10072000012211020448FFF755FF00224FF48071A7
:100730000148FFF74FFF70BD000C014010B50122CA
:1007400051020A48FFF746FF012211020748FFF74E
:1007500041FF00224FF400710448FFF73BFF0022E5
:100760004FF480710148FFF735FF10BD000C0140C8
:1007700010B500224FF400710648FFF72BFF01224D
:1007800011020448FFF726FF012251020148FFF73A
:1007900021FF10BD000C014070B5002406E00025CB
:1007A00000E06D1CB5F57A7FFBD3641CB4F57A7F4D
:1007B000F5D3FFF771FFAE2000F0E1F8D52000F08F
:1007C000DEF8802000F0DBF8A82000F0D8F83F2009
:1007D00000F0D5F8D32000F0D2F8002000F0CFF8D8
:1007E000402000F0CCF8A12000F0C9F8C82000F0AB
:1007F000C6F8DA2000F0C3F8122000F0C0F881201B
:1008000000F0BDF8CF2000F0BAF8D92000F0B7F81A
:10081000F12000F0B4F8DB2000F0B1F8302000F057
:10082000AEF8A42000F0ABF8A62000F0A8F88D20C8
:1008300000F0A5F8142000F0A2F8AF2000F09FF817
:10084000FFF714FF70BD10B50246012000E05043D1
:100850000B1EA1F10101FAD110BD70B505460C4681
:1008600045F0B00000F08BF8102141EA141000F0C0
:1008700086F804F00F0000F082F870BD2DE9F04119
:1008800005460E461746721ED206110E6A1E520605
:10089000100EFFF7E2FF002409E0A7F12001134A40
:1008A00002EB0111085D00F07AF8601CC4B2082C5C
:1008B000F3DB721ED206110E6A1E012303EB420205
:1008C000D0B2FFF7CAFF00240BE0A7F12001074ACE
:1008D00002EB011204F10801505C00F060F8601CAA
:1008E000C4B2082CF1DBBDE8F0810000580B000811
:1008F0002DE9F0478146884615461E46002D06DB49
:100900002B2241464846FFF7B9FF2F4605E02D222E
:1009100041464846FFF7B2FF6F42002417E0301B04
:10092000411E0A20FFF78FFFB7FBF0F00A21B0FB52
:10093000F1F201FB120000F1300A08EB0400401C48
:10094000C1B252464846FFF799FF601CC4B2B44298
:10095000E5DBBDE8F0872DE9F04107460E46154678
:10096000002407E02A5D3019C1B23846FFF786FF40
:10097000601CC4B2285D0028F4D1BDE8F08110B538
:100980000446FFF7DBFE7820FFF7AEFE0020FFF7FE
:10099000ABFE2046FFF7A8FEFFF7EAFE10BD10B53C
:1009A0000446FFF7CBFE7820FFF79EFE4020FFF7BE
:1009B0009BFE2046FFF798FEFFF7DAFE10BD70475A
:1009C00029B1064A92690243044B9A6104E0034A42
:1009D00092698243014B9A61704700000010024007
:1009E000704710B500F002F810BD00000CB50020F3
:1009F000019000902A48006840F48030284908603F
:100A000000BF2748006800F4003000900198401CA7
:100A10000190009818B90198B0F5A06FF1D1204865
:100A2000006800F4003010B10120009001E00020C7
:100A300000900098012831D1194840681849486051
:100A40000846406848600846406848600846406874
:100A500020F47C1048600846406840F498104860D4
:100A60000846006840F08070086000BF0C480068CD
:100A700000F000700028F9D00948406820F0030019
:100A8000074948600846406840F00200486000BFDF
:100A90000348406800F00C000828F9D10CBD0000A4
:100AA000001002407047000010B51448006840F084
:100AB00001001249086008464068114908400F4982
:100AC0004860084600680F4908400C49086008461D
:100AD000006820F4802008600846406820F4FE008A
:100AE00048604FF41F0088600020C862FFF779FF5C
:100AF0004FF000600449086010BD00000010024083
:100B00000000FFF8FFFFF6FE08ED00E000BFFEE783
:100B1000FFF742FEFFF75CFC0AA201210846FFF73F
:100B20001AFF0DE0FFF74AFC0A4909680844094921
:100B3000086005230846012102680220FFF7D8FE5D
:100B4000F0E70000456E636F6465725F436F756E1A
:100B5000743A0000040000200000000000000000C3
:100B60000000000000000000000000F8000000008D
:100B7000000000333000000000100C06100C0600CE
:100B8000000000000000000040C07840C078400035
:100B9000043F04043F040400007088FC0830000097
:100BA000001820FF211E0000F008F000E0180000EF
:100BB00000211C031E211E0000F0088870000000A8
:100BC0001E2123241927211010160E0000000000FA
:100BD0000000000000000000000000E01804020017
:100BE000000000071820400000020418E000000088
:100BF0000040201807000000404080F08040400086
:100C00000202010F01020200000000F000000000DB
:100C10000101011F010101000000000000000000AF
:100C200080B0700000000000000000000000000024
:100C300000010101010101010000000000000000AD
:100C40000030300000000000000000008060180448
:100C5000006018060100000000E010080810E00025
:100C6000000F102020100F00001010F800000000EE
:100C70000020203F20200000007008080888700035
:100C800000302824222130000030088888483000B5
:100C90000018202020110E000000C02010F80000D5
:100CA00000070424243F240000F80888880808006E
:100CB0000019212020110E0000E010888818000083
:100CC000000F112020110E0000380808C838080055
:100CD0000000003F000000000070880808887000D5
:100CE000001C222121221C0000E010080810E00056
:100CF0000000312222110F00000000C0C0000000DF
:100D00000000003030000000000000800000000003
:100D100000008060000000000000804020100800FB
:100D200000010204081020004040404040404000C4
:100D3000040404040404040000081020408000009F
:100D40000020100804020100007048080808F000A4
:100D50000000003036010000C030C828E810E00074
:100D60000718272423140B000000C038E0000000FF
:100D7000203C23020227382008F888888870000069
:100D8000203F202020110E00C0300808080838003D
:100D9000071820202010080008F808080810E000B4
:100DA000203F202020100F0008F88888E808100055
:100DB000203F20202320180008F88888E808100029
:100DC000203F200003000000C03008080838000061
:100DD00007182020221E020008F808000008F80862
:100DE000203F210101213F20000808F808080000E9
:100DF0000020203F2020000000000808F80808001C
:100E0000C08080807F00000008F888C02818080093
:100E1000203F20012638200008F8080000000000CC
:100E2000203F20202020300008F8F800F8F80800C3
:100E3000203F003F003F200008F830C00008F808BD
:100E4000203F200007183F00E01008080810E000CD
:100E50000F10202020100F0008F808080808F000E4
:100E6000203F210101010000E01008080810E00007
:100E70000F18242438504F0008F88888888870009C
:100E8000203F2000030C302000708808080838003C
:100E90000038202121221C00180808F80808180032
:100EA0000000203F2000000008F808000008F808B3
:100EB000001F202020201F000878880000C8380864
:100EC000000007380E010000F80800F80008F800DC
:100ED000033C0700073C0300081868808068180876
:100EE00020302C03032C30200838C800C8380800F4
:100EF0000000203F2000000010080808C838080043
:100F00002038262120201800000000FE02020200E6
:100F10000000007F40404000000C30C00000000096
:100F2000000000010638C00000020202FE000000BE
:100F3000004040407F000000000004020202040064
:100F400000000000000000000000000000000000A1
:100F50008080808080808080000202040000000089
:100F60000000000000000000000080808080000081
:100F70000019242222223F2008F80080800000006F
:100F8000003F112020110E00000000808080000032
:100F9000000E112020201100000000808088F80041
:100FA000000E112020103F20000080808080000073
:100FB000001F222222221300008080F088888818D7
:100FC0000020203F202000000000808080808000E2
:100FD000006B94949493600008F800808080000077
:100FE000203F210000203F20008098980000000052
:100FF0000020203F20200000000000809898000082
:1010000000C08080807F000008F8000080808000A1
:10101000203F24022D302000000808F800000000C6
:101020000020203F20200000808080808080800081
:10103000203F20003F20003F808000808080000013
:10104000203F210000203F200000808080800000A1
:10105000001F202020201F008080008080000000D2
:1010600080FFA12020110E00000000808080800001
:10107000000E112020A0FF808080800080808000F2
:1010800020203F212000010000008080808080001F
:101090000033242424241900008080E08080000094
:1010A0000000001F202000008080000000808000E1
:1010B000001F202020103F20808080000080808042
:1010C00000010E30080601008080008000808080D2
:1010D0000F300C030C300F000080800080808000F7
:1010E0000020312E0E312000808080000080808022
:1010F00080818E70180601000080808080808000D2
:101100000021302C2221300000000000807C0202EF
:1011100000000000003F404000000000FF00000011
:1011200000000000FF0000000002027C80000000C0
:101130000040403F000000000006010102020404DC
:1011400000000000000000006811000800000020FE
:1011500008000000280100087011000808000020A5
:1011600060060000440100080000000000000000CC
:040000050800018965
:00000001FF
